S01500004469676974616C20436C6F636B2E7372656345
S11300000C942A000C9434000C9434000C943400A6
S11300100C9434000C9434000C9434000C9434008C
S11300200C9434000C9434000C9434000C9434007C
S11300300C9434000C9434000C9434000C9434006C
S11300400C9434000C9434000C9434000C9434005C
S11300500C94340011241FBECFE5D8E0DEBFCDBF21
S11300600E94E3000C9406020C9400008DE18ABB0C
S113007080EB87BB14BA11BA0895883010F5662353
S113008019F0613081F095C04BB321E030E0B90143
S113009002C0660F771F8A95E2F7CB01809584230F
S11300A08BBB80E008954BB321E030E0B90102C07E
S11300B0660F771F8A95E2F7CB01842B8BBB80E018
S11300C0089598EF980F983020F5662319F0613061
S11300D089F071C048B3877021E030E0B90102C0F3
S11300E0660F771F8A95E2F7CB018095842388BB3E
S11300F080E0089548B3877021E030E0B90102C080
S1130100660F771F8A95E2F7CB01842B88BB80E0CA
S1130110089590EF980F983020F5662319F0613018
S113012089F04BC045B3877021E030E0B90102C0CB
S1130130660F771F8A95E2F7CB018095842385BBF0
S113014080E0089545B3877021E030E0B90102C032
S1130150660F771F8A95E2F7CB01842B85BB80E07D
S1130160089598EE980F983050F5662319F0613091
S113017089F027C042B3877021E030E0B90102C0A2
S1130180660F771F8A95E2F7CB018095842382BBA3
S113019080E0089542B3877021E030E0B90102C0E5
S11301A0660F771F8A95E2F7CB01842B82BB80E030
S11301B0089582E0089582E0089582E0089582E03F
S11301C0089582E008950E9436000E94E0010E9492
S11301D0CF0100E0CC24C394DD24D394EE24E39433
S11301E0FF24F394D0E00D3008F08FC0DB33D8F057
S11301F01EC0612F87E00E94A801C1E010C0DF5F2C
S11302006FEF6C0F88E00E94A8012FE38DE093E06C
S1130210215080409040E1F700C00000CF5FCB3018
S113022070F31F5F01C010E0163018F3DCCF60E0FC
S113023087E00E94A80160E088E00E94A80125E010
S11302402E1548F189E08F1580F06F2D86E00E940D
S1130250A8019FE32DE083E0915020408040E1F726
S113026000C00000F394D0E0BECF6E2D85E00E9464
S1130270A80160E086E00E94A8019FE32DE083E0EE
S1130280915020408040E1F700C00000E394FF2437
S1130290F394D0E0A8CF0F5F60E086E00E94A8014D
S11302A060E085E00E94A80198E09D15A0F06D2D06
S11302B084E00E94A8012FE38DE093E02150804068
S11302C09040E1F700C00000D394EE24E394FF24AF
S11302D0F394D0E088CF60E084E00E94A8016C2D04
S11302E083E00E94A8012FE38DE093E02150804039
S11302F09040E1F700C00000C394DD24D394EE24C1
S1130300E394FF24F394D0E06ECF60E083E00E9496
S1130310A80160E084E00E94A80160E085E00E94FA
S1130320A80160E086E00E94A80160E087E00E94E6
S1130330A80160E088E00E94A80100E0CC24C394F6
S1130340DD24D394EE24E394FF24F394D0E04BCF44
S11303500F931F93CF93DF931F92CDB7DEB7082F70
S1130360162F60E070E08CE090E00E943D00BE013A
S11303706F5F7F4F802F0E94F901BE016F5F7F4F37
S1130380812F0E94F90161E070E08CE090E00E940E
S11303903D000F90DF91CF911F910F9108956FEF62
S11303A089E00E94A8016FEF8AE00E94A8016FEF24
S11303B08CE00E94A8016FEF8BE00E94A8010895D1
S11303C08DB180618DB98DB181608DB98DB18D7F15
S11303D08DB98EB181608EB98DB1877F8DB98DB1A4
S11303E08B7F8DB98DB18F7D8DB98DB180648DB9C1
S11303F008956115710541F08FB9779BFECF8FB1D8
S1130400FB01808380E0089583E00895F894FFCF92
S9030000FC
